{
  "contractName": "TransferenciaEthereum",
  "abi": [
    {
      "inputs": [],
      "stateMutability": "nonpayable",
      "type": "constructor"
    },
    {
      "anonymous": false,
      "inputs": [
        {
          "indexed": true,
          "internalType": "address",
          "name": "buyer",
          "type": "address"
        },
        {
          "indexed": false,
          "internalType": "uint256",
          "name": "amount",
          "type": "uint256"
        }
      ],
      "name": "Purchase",
      "type": "event"
    },
    {
      "inputs": [],
      "name": "owner",
      "outputs": [
        {
          "internalType": "address payable",
          "name": "",
          "type": "address"
        }
      ],
      "stateMutability": "view",
      "type": "function",
      "constant": true
    },
    {
      "inputs": [
        {
          "internalType": "address",
          "name": "",
          "type": "address"
        }
      ],
      "name": "purchases",
      "outputs": [
        {
          "internalType": "uint256",
          "name": "",
          "type": "uint256"
        }
      ],
      "stateMutability": "view",
      "type": "function",
      "constant": true
    },
    {
      "inputs": [],
      "name": "comprar",
      "outputs": [],
      "stateMutability": "payable",
      "type": "function",
      "payable": true
    },
    {
      "inputs": [],
      "name": "withdrawFunds",
      "outputs": [],
      "stateMutability": "nonpayable",
      "type": "function"
    }
  ],
  "bytecode": "0x608060405234801561001057600080fd5b507368f2a69779e2ef6b5ad77b521b1382d8465887786000806101000a81548173ffffffffffffffffffffffffffffffffffffffff021916908373ffffffffffffffffffffffffffffffffffffffff160217905550610687806100746000396000f3fe60806040526004361061003f5760003560e01c806324600fc31461004457806379879d301461005b578063842a77d3146100655780638da5cb5b146100a2575b600080fd5b34801561005057600080fd5b506100596100cd565b005b61006361020d565b005b34801561007157600080fd5b5061008c60048036038101906100879190610347565b6102f6565b604051610099919061053b565b60405180910390f35b3480156100ae57600080fd5b506100b761030e565b6040516100c491906104c0565b60405180910390f35b60008054906101000a900473ffffffffffffffffffffffffffffffffffffffff1673ffffffffffffffffffffffffffffffffffffffff163373ffffffffffffffffffffffffffffffffffffffff161461015b576040517f08c379a0000000000000000000000000000000000000000000000000000000008152600401610152906104fb565b60405180910390fd5b6000479050600081116101a3576040517f08c379a000000000000000000000000000000000000000000000000000000000815260040161019a906104db565b60405180910390fd5b60008054906101000a900473ffffffffffffffffffffffffffffffffffffffff1673ffffffffffffffffffffffffffffffffffffffff166108fc829081150290604051600060405180830381858888f19350505050158015610209573d6000803e3d6000fd5b5050565b60003411610250576040517f08c379a00000000000000000000000000000000000000000000000000000000081526004016102479061051b565b60405180910390fd5b34600160003373ffffffffffffffffffffffffffffffffffffffff1673ffffffffffffffffffffffffffffffffffffffff168152602001908152602001600020600082825461029f9190610567565b925050819055503373ffffffffffffffffffffffffffffffffffffffff167f2499a5330ab0979cc612135e7883ebc3cd5c9f7a8508f042540c34723348f632346040516102ec919061053b565b60405180910390a2565b60016020528060005260406000206000915090505481565b60008054906101000a900473ffffffffffffffffffffffffffffffffffffffff1681565b6000813590506103418161063a565b92915050565b60006020828403121561035957600080fd5b600061036784828501610332565b91505092915050565b610379816105cf565b82525050565b600061038c602683610556565b91507f4e6f2068617920666f6e646f7320646973706f6e69626c65732070617261207260008301527f65746972617200000000000000000000000000000000000000000000000000006020830152604082019050919050565b60006103f2603c83610556565b91507f536f6c6f20656c2070726f706965746172696f2064656c20636f6e747261746f60008301527f207075656465206c6c616d6172206120657374612066756e63696f6e000000006020830152604082019050919050565b6000610458602183610556565b91507f4465626520656e7669617220756e206d6f6e746f206d61796f7220612063657260008301527f6f000000000000000000000000000000000000000000000000000000000000006020830152604082019050919050565b6104ba81610601565b82525050565b60006020820190506104d56000830184610370565b92915050565b600060208201905081810360008301526104f48161037f565b9050919050565b60006020820190508181036000830152610514816103e5565b9050919050565b600060208201905081810360008301526105348161044b565b9050919050565b600060208201905061055060008301846104b1565b92915050565b600082825260208201905092915050565b600061057282610601565b915061057d83610601565b9250827fffffffffffffffffffffffffffffffffffffffffffffffffffffffffffffffff038211156105b2576105b161060b565b5b828201905092915050565b60006105c8826105e1565b9050919050565b60006105da826105e1565b9050919050565b600073ffffffffffffffffffffffffffffffffffffffff82169050919050565b6000819050919050565b7f4e487b7100000000000000000000000000000000000000000000000000000000600052601160045260246000fd5b610643816105bd565b811461064e57600080fd5b5056fea26469706673582212201f340fd6c6f8a649d2f0e69c617e4e7132d0a43b9bbd59a41e57e4a9f7beaf1a64736f6c63430008000033",
  "immutableReferences": {},
  "source": "// SPDX-License-Identifier: MIT\npragma solidity >=0.4.22 <0.9.0;\n\ncontract TransferenciaEthereum {\n    address payable public owner;\n    mapping(address => uint256) public purchases;\n\n    event Purchase(address indexed buyer, uint256 amount);\n\n    constructor() {\n        owner = payable(0x68F2a69779E2ef6b5AD77b521b1382D846588778);\n    }\n\n    modifier onlyOwner() {\n        require(\n            msg.sender == owner,\n            \"Solo el propietario del contrato puede llamar a esta funcion\"\n        );\n        _;\n    }\n\n    function comprar() external payable {\n        require(msg.value > 0, \"Debe enviar un monto mayor a cero\");\n\n        // Guarda la compra realizada por el comprador\n        purchases[msg.sender] += msg.value;\n\n        emit Purchase(msg.sender, msg.value);\n    }\n\n    function withdrawFunds() external onlyOwner {\n        uint256 balance = address(this).balance;\n        require(balance > 0, \"No hay fondos disponibles para retirar\");\n\n        owner.transfer(balance);\n    }\n}\n",
  "sourcePath": "C:\\Users\\Leonardo\\Documents\\Block\\TransferenciaEtherum\\payment\\contracts\\TransferenciaEthereum.sol",
  "compiler": {
    "name": "solc",
    "version": "0.8.0+commit.c7dfd78e.Emscripten.clang"
  },
  "schemaVersion": "3.4.16",
  "updatedAt": "2023-12-05T05:18:22.900Z",
  "networkType": "ethereum",
  "devdoc": {
    "kind": "dev",
    "methods": {},
    "version": 1
  },
  "userdoc": {
    "kind": "user",
    "methods": {},
    "version": 1
  }
}